:020000000B28CB
:10000800CE00030E83128C000A088D0054290C2898
:100018006F21980097018301112883168501073005
:1000280086008117011781120B168B178B1083120C
:100038008611861782309500DD309400940B2228B3
:10004800950B222827288312861382309500DD30ED
:100058009400940B2D28950B2D283228831286178F
:1000680082309500DD309400940B3828950B3828A1
:100078003D288312861382309500DD309400940B5E
:100088004328950B43284828831286178230950009
:10009800DD309400940B4E28950B4E28532883127C
:1000A800861382309500DD309400940B5928950B07
:1000B80059285E2883128617053096000F30950060
:1000C800F1309400940B6628950B6628960B6628E9
:1000D800831286138312180818218312861C752828
:1000E8007628B828861782309500DD309400940B66
:1000F8007B28950B7B2880288312861382309500F5
:10010800DD309400940B8628950B86288B28831263
:10011800861782309500DD309400940B9128950B5A
:10012800912896288312861382309500DD3094003A
:10013800940B9C28950B9C28A12883128617823043
:100148009500DD309400940BA728950BA728AC28C0
:100158008312861382309500DD309400940BB22808
:10016800950BB228B728C520413083129500EE3090
:100178009400940BBD28950BBD28000064006E28E0
:100188000B288312180897008B13170818210A29BF
:100198001708182183128617023093000430920042
:1001A800BA309100910BD628920BD628930BD628FB
:1001B800000083128613053093000F309200F1304F
:1001C8009100910BE528920BE528930BE528013067
:1001D800831297021708031DF228F3280929061D20
:1001E800F628F72809291708182183128615861773
:1001F80064000129861586176400831206190529EB
:100208000629FE2886118613172964008312061909
:100218000E290F29CC286400831286181429152961
:10022800C5288B1764000800831290000130100560
:100238008E0005080E06FE390E06850010088E0091
:1002480003100E0C01398F008F0D05080F06FD39BC
:100258000F06850010088E00023003108E0CFF3E3A
:10026800031D31290E0801398F008F0D8F0D0508E8
:100278000F06FB390F06850010088E0003300310A7
:100288008E0CFF3E031D43290E0801398F008F0D88
:100298008F0D8F0D05080F06F7390F06850008002A
:1002A8000B1E5729582968298B1C5B295C2968294A
:1002B8008B13013098021808031D632964296629E5
:1002C800093098008B108B170D088A000C0E8300DC
:0802D800CE0E4E0E09000534A4
:02400E00FD3F74
:00000001FF
