:020000040000fa
:080000000001040000000000f3
:020000040000fa
:040008006e03000083
:020000040000fa
:04000c006e0300007f
:020000040000fa
:040010006e0300007b
:020000040000fa
:040014006e03000077
:020000040000fa
:040018006e03000073
:020000040000fa
:04001c006e0300006f
:020000040000fa
:040020006e0300006b
:020000040000fa
:040024006e03000067
:020000040000fa
:040028006e03000063
:020000040000fa
:04002c006e0300005f
:020000040000fa
:040030006e0300005b
:020000040000fa
:040034006e03000057
:020000040000fa
:040038006e03000053
:020000040000fa
:04003c006e0300004f
:020000040000fa
:040040006e0300004b
:020000040000fa
:040044006e03000047
:020000040000fa
:040048006e03000043
:020000040000fa
:04004c006e0300003f
:020000040000fa
:040050006e0300003b
:020000040000fa
:040054006e03000037
:020000040000fa
:040058006e03000033
:020000040000fa
:04005c006e0300002f
:020000040000fa
:040060006e0300002b
:020000040000fa
:040064006e03000027
:020000040000fa
:040068006e03000023
:020000040000fa
:04006c006e0300001f
:020000040000fa
:040070006e0300001b
:020000040000fa
:040074000402000082
:020000040000fa
:040078006e03000013
:020000040000fa
:04007c006e0300000f
:020000040000fa
:040080006e0300000b
:020000040000fa
:040084006e03000007
:020000040000fa
:040088006e03000003
:020000040000fa
:04008c006e030000ff
:020000040000fa
:040090006e030000fb
:020000040000fa
:040094006e030000f7
:020000040000fa
:040098006e030000f3
:020000040000fa
:04009c006e030000ef
:020000040000fa
:0400a0006e030000eb
:020000040000fa
:0400a4006e030000e7
:020000040000fa
:0400a8006e030000e3
:020000040000fa
:0400ac006e030000df
:020000040000fa
:0400b0006e030000db
:020000040000fa
:0400b4006e030000d7
:020000040000fa
:0400b8006e030000d3
:020000040000fa
:0400bc006e030000cf
:020000040000fa
:0400c0006e030000cb
:020000040000fa
:0400c4006e030000c7
:020000040000fa
:0400c8006e030000c3
:020000040000fa
:0400cc006e030000bf
:020000040000fa
:0400d0006e030000bb
:020000040000fa
:0400d4006e030000b7
:020000040000fa
:0400d8006e030000b3
:020000040000fa
:0400dc006e030000af
:020000040000fa
:0400e0006e030000ab
:020000040000fa
:0400e4006e030000a7
:020000040000fa
:0400e8006e030000a3
:020000040000fa
:0400ec006e0300009f
:020000040000fa
:0400f0006e0300009b
:020000040000fa
:0400f4006e03000097
:020000040000fa
:0400f8006e03000093
:020000040000fa
:0400fc006e0300008f
:020000040000fa
:040100006e0300008a
:020000040000fa
:040104006e03000086
:020000040000fa
:040108006e03000082
:020000040000fa
:04010c006e0300007e
:020000040000fa
:040110006e0300007a
:020000040000fa
:040114006e03000076
:020000040000fa
:040118006e03000072
:020000040000fa
:04011c006e0300006e
:020000040000fa
:040120006e0300006a
:020000040000fa
:040124006e03000066
:020000040000fa
:040128006e03000062
:020000040000fa
:04012c006e0300005e
:020000040000fa
:040130006e0300005a
:020000040000fa
:040134006e03000056
:020000040000fa
:040138006e03000052
:020000040000fa
:04013c006e0300004e
:020000040000fa
:040140006e0300004a
:020000040000fa
:040144006e03000046
:020000040000fa
:040148006e03000042
:020000040000fa
:04014c006e0300003e
:020000040000fa
:040150006e0300003a
:020000040000fa
:040154006e03000036
:020000040000fa
:040158006e03000032
:020000040000fa
:04015c006e0300002e
:020000040000fa
:040160006e0300002a
:020000040000fa
:040164006e03000026
:020000040000fa
:040168006e03000022
:020000040000fa
:04016c006e0300001e
:020000040000fa
:040170006e0300001a
:020000040000fa
:040174006e03000016
:020000040000fa
:040178006e03000012
:020000040000fa
:04017c006e0300000e
:020000040000fa
:040180006e0300000a
:020000040000fa
:040184006e03000006
:020000040000fa
:040188006e03000002
:020000040000fa
:04018c006e030000fe
:020000040000fa
:040190006e030000fa
:020000040000fa
:040194006e030000f6
:020000040000fa
:040198006e030000f2
:020000040000fa
:04019c006e030000ee
:020000040000fa
:0401a0006e030000ea
:020000040000fa
:0401a4006e030000e6
:020000040000fa
:0401a8006e030000e2
:020000040000fa
:0401ac006e030000de
:020000040000fa
:0401b0006e030000da
:020000040000fa
:0401b4006e030000d6
:020000040000fa
:0401b8006e030000d2
:020000040000fa
:0401bc006e030000ce
:020000040000fa
:0401c0006e030000ca
:020000040000fa
:0401c4006e030000c6
:020000040000fa
:0401c8006e030000c2
:020000040000fa
:0401cc006e030000be
:020000040000fa
:0401d0006e030000ba
:020000040000fa
:0401d4006e030000b6
:020000040000fa
:0401d8006e030000b2
:020000040000fa
:0401dc006e030000ae
:020000040000fa
:0401e0006e030000aa
:020000040000fa
:0401e4006e030000a6
:020000040000fa
:0401e8006e030000a2
:020000040000fa
:0401ec006e0300009e
:020000040000fa
:0401f0006e0300009a
:020000040000fa
:0401f4006e03000096
:020000040000fa
:0401f8006e03000092
:020000040000fa
:0401fc006e0300008e
:020000040000fa
:100200000f8020000e7f22000e01880000000000f9
:10021000000020000000e000020032000001200089
:1002200020028800140007002e0107000000e000f3
:1002300003003a0000002000010020000200370007
:100240000000200001002000810f7000010032003a
:1002500014000700000020000000e000020032004f
:100260000000020000000000b203020000000000d5
:100270000040da000000fe004440a90020002000f9
:100280000000e00003003200100020009001880010
:100290004440a800000006008a1f78008b1f7800e9
:1002a00000000600a1028800800478000000eb0036
:1002b0001f003700e284440054a0b4009905ba003e
:1002c000e284440054a0b4009906ba00e2844400d9
:1002d00054a0b4000006eb00476fde00fd07b2003b
:1002e000ae018800636ce10003003a00eaff0700fa
:1002f0000000eb000e003700606ce10008003a00df
:10030000004deb000a05e800020039003420ec0043
:100310000af0a0008b05e900f9ff3e000400370059
:100320006168e100010032000086eb000b0007006d
:1003300019c7ba001905ba000e04e00003003a001c
:100340000a00e000dbff3a0000000600fe07b200f2
:10035000ae0288008a047800f5ff37000cd0a300b5
:10036000e20f4d001c00390089027800354dba00bb
:100370000a05e800020039003420ec000af0a00071
:100380008b05e9000f003200254dba000a05e80090
:10039000020039003420ec000af0a0008b05e900cf
:1003a000080032000c00e0000600320015cdba0053
:1003b0000a05e800020039003420ec000af0a00031
:1003c0008b05e9008984e80054a0b4000b00e0002c
:1003d000e2ff3a00000006009902ba00055d7800cd
:1003e0008b05e900f7ff3200c82ade00055d7800c2
:1003f0008b05e900f3ff32000c00e000f1ff320052
:1004000019ddba00eeff3700809fbe003200f80011
:100410003400f80010002000a00188001000200027
:10042000900188000000fa00003380006200600044
:100430000000e000a400320020348000640060006e
:100440000000e0000f0032003033800061006000e7
:1004500000f0a7000000ea000000e9004f00de0005
:10046000004078000080fb006100600021338000c4
:100470000100a10001007000203388008446a9001b
:100480009100370020348000680060000000e00028
:100490000f003200303380006100600000f0a700e0
:1004a0000000ea000000e9004f00de000040780094
:1004b0000080fb0061006000213380000100a1008a
:1004c00001007000203388008466a9007e00370098
:1004d00020348000700060000000e0001000320056
:1004e000303380006200600000f0a7000000ea00e6
:1004f0000000e9004f00de00004078000080fb00b3
:100500006100600000004000213380000110a10064
:1005100001007000203388008486a9006a0037003b
:100520002134800000022000008060000000e00014
:1005300010003200303380006200600000f0a7003d
:100540000000ea000000e9004f00de0000407800f3
:100550000080fb006100600000004000213380004b
:100560000110a100010070002033880084a6a900ba
:100570005500370021348000000420000080600016
:100580000000e00010003200303380007000600096
:1005900000f0a7000000ea000000e9004f00de00c4
:1005a000004078000080fb00610060004400dd0036
:1005b000213380000140a100010070002033880039
:1005c00084c6a900400037002134800000102000bc
:1005d000008060000000e000100032003033800036
:1005e0007000600000f0a7000000ea000000e900d1
:1005f0004f00de00004078000080fb0061006000da
:100600004400dd00213380000140a10001007000a2
:10061000203388008506a9002b0037002134800094
:1006200000202000008060000000e0001100320087
:10063000d1338000000024000080600000f0a7009b
:100640000000ea000000e9004f00de0000407800f2
:100650000080fb00610060004e00dd00c1338000bf
:1006600001e0a10001007000c03388008526a900c8
:100670001500370021348000000022000080600057
:100680000000e00010003200d133800000002400a0
:100690000080600000f0a7000000ea000000e90010
:1006a0004f00de00004078000080fb006100600029
:1006b0004e00dd00c133800001e0a10001007000a8
:1006c000c033880085a6a9000080fa003400f90034
:1006d0003200f9004f00be00004006000040da0082
:0806e0000000fe00000005000f
:020000040000fa
:1006e8000000fa006a26ef007e26ef006206a900e5
:1006f8006226a9006286a90077c6a9007646a800e6
:100708007666a8007686a80076a6a80076c6a80011
:100718007706a8007726a80077a6a8006406a9008f
:100728006426a9006486a90079c6a9000080fa0099
:10073800000006000000fa005fe6a800c0372200ab
:1007480000348800c0372200403488008a60a9003d
:100758009a60a8000080fa00000006000000fa0075
:0c076800dfff0700f3ff0700ffff370072
:020000040000fa
:020000040001f9
:045e0000ffffff00a1
:020000040000fa
:020000040001f9
:045e2000ffffff0081
:020000040000fa
:020000040001f9
:045e30007affff00f6
:020000040000fa
:020000040001f9
:045e380091ffff00d7
:020000040000fa
:020000040001f9
:045e4000809fff0040
:020000040000fa
:020000040001f9
:045e4800f4ffff0064
:020000040000fa
:020000040001f9
:045e5000dfffff0071
:020000040000fa
:020000040001f9
:045e5800ffffff0049
:020000040000fa
:020000040001f9
:045e6000ffffff0041
:020000040000fa
:020000040001f9
:045e6800ffffff0039
:020000040000fa
:020000040001f9
:045e7000ffffff0031
:020000040000fa
:020000040001f9
:045e7800ffffff0029
:020000040000fa
:020000040001f9
:045e8000f5fbff002f
:00000001FF
