:020000040000fa
:080000000001040000000000f3
:020000040000fa
:040008003c040000b4
:020000040000fa
:04000c003c040000b0
:020000040000fa
:040010003c040000ac
:020000040000fa
:040014003c040000a8
:020000040000fa
:040018003c040000a4
:020000040000fa
:04001c003c040000a0
:020000040000fa
:040020003c0400009c
:020000040000fa
:040024003c04000098
:020000040000fa
:040028003c04000094
:020000040000fa
:04002c003c04000090
:020000040000fa
:040030003c0400008c
:020000040000fa
:040034003c04000088
:020000040000fa
:040038003c04000084
:020000040000fa
:04003c003c04000080
:020000040000fa
:040040003c0400007c
:020000040000fa
:040044003c04000078
:020000040000fa
:040048003c04000074
:020000040000fa
:04004c003c04000070
:020000040000fa
:040050003c0400006c
:020000040000fa
:0400540004020000a2
:020000040000fa
:040058003c04000064
:020000040000fa
:04005c003c04000060
:020000040000fa
:040060003c0400005c
:020000040000fa
:040064003c04000058
:020000040000fa
:040068003c04000054
:020000040000fa
:04006c003c04000050
:020000040000fa
:040070003c0400004c
:020000040000fa
:04007400d2020000b4
:020000040000fa
:040078003c04000044
:020000040000fa
:04007c003c04000040
:020000040000fa
:040080003c0400003c
:020000040000fa
:040084003c04000038
:020000040000fa
:040088003c04000034
:020000040000fa
:04008c003c04000030
:020000040000fa
:040090003c0400002c
:020000040000fa
:040094003c04000028
:020000040000fa
:040098003c04000024
:020000040000fa
:04009c003c04000020
:020000040000fa
:0400a0006a020000f0
:020000040000fa
:0400a4003c04000018
:020000040000fa
:0400a8003c04000014
:020000040000fa
:0400ac003c04000010
:020000040000fa
:0400b0003c0400000c
:020000040000fa
:0400b4003c04000008
:020000040000fa
:0400b8003c04000004
:020000040000fa
:0400bc003c04000000
:020000040000fa
:0400c0003c040000fc
:020000040000fa
:0400c4003c040000f8
:020000040000fa
:0400c8003c040000f4
:020000040000fa
:0400cc003c040000f0
:020000040000fa
:0400d0003c040000ec
:020000040000fa
:0400d4003c040000e8
:020000040000fa
:0400d8003c040000e4
:020000040000fa
:0400dc003c040000e0
:020000040000fa
:0400e0003c040000dc
:020000040000fa
:0400e4003c040000d8
:020000040000fa
:0400e8003c040000d4
:020000040000fa
:0400ec003c040000d0
:020000040000fa
:0400f0003c040000cc
:020000040000fa
:0400f4003c040000c8
:020000040000fa
:0400f8003c040000c4
:020000040000fa
:0400fc003c040000c0
:020000040000fa
:040100003c040000bb
:020000040000fa
:040104003c040000b7
:020000040000fa
:040108003c040000b3
:020000040000fa
:04010c003c040000af
:020000040000fa
:040110003c040000ab
:020000040000fa
:040114003c040000a7
:020000040000fa
:040118003c040000a3
:020000040000fa
:04011c003c0400009f
:020000040000fa
:040120003c0400009b
:020000040000fa
:040124003c04000097
:020000040000fa
:040128003c04000093
:020000040000fa
:04012c003c0400008f
:020000040000fa
:040130003c0400008b
:020000040000fa
:040134003c04000087
:020000040000fa
:040138003c04000083
:020000040000fa
:04013c003c0400007f
:020000040000fa
:040140003c0400007b
:020000040000fa
:040144003c04000077
:020000040000fa
:040148003c04000073
:020000040000fa
:04014c003c0400006f
:020000040000fa
:040150003c0400006b
:020000040000fa
:040154003c04000067
:020000040000fa
:040158003c04000063
:020000040000fa
:04015c003c0400005f
:020000040000fa
:040160003c0400005b
:020000040000fa
:040164003c04000057
:020000040000fa
:040168003c04000053
:020000040000fa
:04016c003c0400004f
:020000040000fa
:040170003c0400004b
:020000040000fa
:040174003c04000047
:020000040000fa
:040178003c04000043
:020000040000fa
:04017c003c0400003f
:020000040000fa
:040180003c0400003b
:020000040000fa
:040184003c04000037
:020000040000fa
:040188003c04000033
:020000040000fa
:04018c003c0400002f
:020000040000fa
:040190003c0400002b
:020000040000fa
:040194003c04000027
:020000040000fa
:040198003c04000023
:020000040000fa
:04019c003c0400001f
:020000040000fa
:0401a0003c0400001b
:020000040000fa
:0401a4003c04000017
:020000040000fa
:0401a8003c04000013
:020000040000fa
:0401ac003c0400000f
:020000040000fa
:0401b0003c0400000b
:020000040000fa
:0401b4003c04000007
:020000040000fa
:0401b8003c04000003
:020000040000fa
:0401bc003c040000ff
:020000040000fa
:0401c0003c040000fb
:020000040000fa
:0401c4003c040000f7
:020000040000fa
:0401c8003c040000f3
:020000040000fa
:0401cc003c040000ef
:020000040000fa
:0401d0003c040000eb
:020000040000fa
:0401d4003c040000e7
:020000040000fa
:0401d8003c040000e3
:020000040000fa
:0401dc003c040000df
:020000040000fa
:0401e0003c040000db
:020000040000fa
:0401e4003c040000d7
:020000040000fa
:0401e8003c040000d3
:020000040000fa
:0401ec003c040000cf
:020000040000fa
:0401f0003c040000cb
:020000040000fa
:0401f4003c040000c7
:020000040000fa
:0401f8003c040000c3
:020000040000fa
:0401fc003c040000bf
:020000040000fa
:100200000f8020000e7f22000e01880000000000f9
:10021000000020000000e000020032000001200089
:100220002002880014000700950107000000e0008c
:1002300003003a0000002000010020000200370007
:100240000000200001002000810f7000010032003a
:1002500014000700000020000000e000020032004f
:1002600000000200000000009005020000000000f5
:100270000040da000000fe004440a9008000200099
:100280000000e00003003200002020009001880000
:100290004440a800000006008a1f78008b1f7800e9
:1002a00000000600a1028800800478000000eb0036
:1002b0001f003700e284440054a0b4009905ba003e
:1002c000e284440054a0b4009906ba00e2844400d9
:1002d00054a0b4000006eb00476fde00fd07b2003b
:1002e000ae018800636ce10003003a00eaff0700fa
:1002f0000000eb000e003700606ce10008003a00df
:10030000004deb000a05e800020039003420ec0043
:100310000af0a0008b05e900f9ff3e000400370059
:100320006168e100010032000086eb000b0007006d
:1003300019c7ba001905ba000e04e00003003a001c
:100340000a00e000dbff3a0000000600fe07b200f2
:10035000ae0288008a047800f5ff37000cd0a300b5
:10036000e20f4d001c00390089027800354dba00bb
:100370000a05e800020039003420ec000af0a00071
:100380008b05e9000f003200254dba000a05e80090
:10039000020039003420ec000af0a0008b05e900cf
:1003a000080032000c00e0000600320015cdba0053
:1003b0000a05e800020039003420ec000af0a00031
:1003c0008b05e9008984e80054a0b4000b00e0002c
:1003d000e2ff3a00000006009902ba00055d7800cd
:1003e0008b05e900f7ff3200c82ade00055d7800c2
:1003f0008b05e900f3ff32000c00e000f1ff320052
:1004000019ddba00eeff3700809fbe003200f80011
:100410003400f80010002000a00188000020200017
:10042000900188000200fa00c104800000802000d2
:10043000008060000000e00020003200d01c80003e
:10044000620060000000e000010032009a23a90071
:10045000d01c8000640060000000e0000400320056
:10046000f01c80000040780010479800130037000f
:10047000f01c8000004f780020c5b3009e4078003b
:1004800080cf50000d003a003033800061006000e2
:1004900000f0a7000000ea000000e9004f00de00c5
:1004a000004078000080fb00610060003133800074
:1004b0000100a10001007000303388008960a900ac
:1004c0000080fa003400f9003200f9004f00be004d
:1004d00000400600809fbe003200f8003400f800a3
:1004e00010002000a001880000202000900188005a
:1004f0000200fa00d10480000000240000806000a7
:100500000000e00021003200801d800062006000d9
:100510000000e00001003200b023a900801d80002f
:10052000640060000000e00004003200a01d8000b4
:10053000004078001047980014003700a01d80008c
:10054000004f7800e0c7b3009e40780080cf500095
:100550000e003a00303380006200600000f0a70017
:100560000000ea000000e9004f00de0000407800d3
:100570000080fb006100600000004000313380001b
:100580000110a10001007000303388008bc0a90069
:100590000080fa003400f9003200f9004f00be007c
:1005a00000400600809fbe003200f8003400f800d2
:1005b00010002000a0018800002020009001880089
:1005c0000000fa0000338000620060000000e000dc
:1005d000a400320020348000640060000000e000cd
:1005e0000f003200303380006100600000f0a7008f
:1005f0000000ea000000e9004f00de000040780043
:100600000080fb0061006000213380000100a10038
:1006100001007000203388008446a9009100370053
:1006200020348000680060000000e0000f0032000d
:10063000303380006100600000f0a7000000ea0095
:100640000000e9004f00de00004078000080fb0061
:1006500061006000213380000100a10001007000f2
:10066000203388008466a9007e0037002034800093
:10067000700060000000e0001000320030338000a5
:100680006200600000f0a7000000ea000000e9003e
:100690004f00de00004078000080fb006100600039
:1006a00000004000213380000110a1000100700013
:1006b000203388008486a9006a0037002134800036
:1006c00000022000008060000000e0001000320006
:1006d000303380006200600000f0a7000000ea00f4
:1006e0000000e9004f00de00004078000080fb00c1
:1006f0006100600000004000213380000110a10073
:10070000010070002033880084a6a900550037003e
:100710002134800000042000008060000000e00020
:1007200010003200303380007000600000f0a7003d
:100730000000ea000000e9004f00de000040780001
:100740000080fb00610060004400dd002133800078
:100750000140a100010070002033880084c6a90078
:10076000400037002134800000102000008060002d
:100770000000e000100032003033800070006000a4
:1007800000f0a7000000ea000000e9004f00de00d2
:10079000004078000080fb00610060004400dd0044
:1007a000213380000140a100010070002033880047
:1007b0008506a9002b00370021348000002020008e
:1007c000008060000000e00011003200d1338000a2
:1007d000000024000080600000f0a7000000ea0094
:1007e0000000e9004f00de00004078000080fb00c0
:1007f000610060004e00dd00c133800001e0a10017
:1008000001007000c03388008526a900150037005c
:100810002134800000002200008060000000e00021
:1008200010003200d13380000000240000806000fe
:1008300000f0a7000000ea000000e9004f00de0021
:10084000004078000080fb00610060004e00dd0089
:10085000c133800001e0a10001007000c0338800b6
:1008600085a6a9000080fa003400f9003200f900e2
:100870004f00be00004006000040da000000fe000d
:10088000000005006022b800060220000000d00031
:100890008180d2000482d2008582d2000000a000b4
:1008a0000202520083825a00030031000202420019
:1008b00083824a000000a1000603e900f3ff3a002a
:0408c000000006002e
:020000040000fa
:1008c40011520000992d000032630000a77e000041
:020000040000fa
:1008d4000000fa006a26ef007e26ef006206a900f7
:1008e4006226a9006286a90077c6a9007646a800f8
:1008f4007666a8007686a80076a6a80076c6a80024
:100904007706a8007726a80077a6a8006406a900a1
:100914006426a9006486a90079c6a9000080fa00ab
:10092400000006000000fa005fe6a800c0372200bd
:1009340000348800c0372200403488008a60a9004f
:100944009a60a8000080fa00000006000000fa0087
:1009540001088000f00b200000816000600420008a
:100964007105200003102000804978008149780037
:1009740082497800a13d800000fc2f0000806000c7
:10098400a03d8800a13e8000f00f28008080600018
:100994000030200001007000a03e8800b13d8000be
:1009a40000fc2f0000806000a000b300b03d880070
:1009b400f13e8000f00f280080806000005020008d
:1009c40001007000f03e88000008800000017800fb
:1009d4000260a000600420007105200003102000c4
:1009e4008049780081497800824978000080fa00c3
:1009f400000006000200fa00000f780099e3a90045
:100a040099a3a8009983a9009963a8009903a90050
:100a14009923a90098e3a90098c3a90098a3a90061
:100a24009883a9009863a80070062000001d880020
:100a34009823a900c11c800090ff2f000080600053
:100a4400c01c88009803a9009ba3a9009be3a900ec
:100a54009bc3a9009b63a9009ac3a9009ae3a900b8
:100a640099e3a8009960a9009b43a8009b83a80070
:100a74000080fa00000006000200fa00000f78006f
:100a8400afe3a900afa3a800af83a900af63a80098
:100a9400af03a900af23a900aee3a900aec3a90028
:100aa400aea3a900ae83a900ae63a8001e0078001f
:100ab4004200dd008000eb000001be000090200039
:100ac400d10320006eff0700000078000000e90059
:100ad400b01d8800ae23a900711d800090ff2f0077
:100ae40000806000701d8800ae03a900b1a3a900b6
:100af400b1e3a900b1c3a900b163a900b0c3a900bf
:100b0400b0e3a900afe3a8009bc0a800b143a800cc
:100b1400b183a8000080fa00000006000a00fa0071
:100b24006bff070089ff070000582200b1ff070090
:100b340040422f00d0ff07007aff0700e100470082
:100b44002246280003000900b2587800e500470057
:100b54006246280003000900b25878000040eb0008
:100b6400004f7800110037001e80fb000000470092
:100b7400104090000080fb00e01c880000d420009e
:100b8400310020000d0007001e80fb00000047001c
:100b9400504090000080fb00901d880000d420008d
:100ba40031002000050007001e4fe8001e407800b9
:0c0bb400e34f5000ecff3600e8ff370074
:020000040000fa
:100bc000f03fb1000180b10006003500ee030900de
:100bd00000000000403fb1000180b100fbff3d007c
:100be0001000b000203fb000020035000080090076
:080bf0000000000000000600f7
:020000040000fa
:020000040001f9
:045e0000ffffff00a1
:020000040000fa
:020000040001f9
:045e2000ffffff0081
:020000040000fa
:020000040001f9
:045e30007affff00f6
:020000040000fa
:020000040001f9
:045e380091ffff00d7
:020000040000fa
:020000040001f9
:045e4000809fff0040
:020000040000fa
:020000040001f9
:045e4800f4ffff0064
:020000040000fa
:020000040001f9
:045e5000dfffff0071
:020000040000fa
:020000040001f9
:045e5800ffffff0049
:020000040000fa
:020000040001f9
:045e6000ffffff0041
:020000040000fa
:020000040001f9
:045e6800ffffff0039
:020000040000fa
:020000040001f9
:045e7000ffffff0031
:020000040000fa
:020000040001f9
:045e7800ffffff0029
:020000040000fa
:020000040001f9
:045e8000f5fbff002f
:00000001FF
