:100000000A128A11FB2F00308A000408840A820732
:100010000034483465346C346C346F3420347734B5
:100020006F3472346C346434003441347234743458
:1000300068347534723420344D3465346C346F3424
:0200400000348A
:100D4E0001300A128A11C8260A128A11080083126B
:100D5E00031388174230F000F00BB32E00008312FD
:100D6E00031388130800F0007003031DBF2EC02E5E
:100D7E00C42E831203130515C72E831203130511F8
:100D8E000800F300F10173080A128A11FD260A12F7
:100D9E008A110A128A11E5260A128A110800F30036
:100DAE00F101F10A73080A128A11FD260A128A113C
:100DBE000A128A11E5260A128A110800FF308316DC
:100DCE000313860083120313881208170A128A115E
:100DDE00AE260A128A1183120313861BF72EF82EE3
:100DEE00ED2E08138316031386010800F2008316F6
:100DFE00031386018312031308137108031D082FB2
:100E0E00092F0B2F8812112F7103031D0F2F102F77
:100E1E00112F8816720886000A128A11AE260A123F
:100E2E008A110800282F740884000A128A110320E0
:100E3E000A128A110A128A11D6260A128A11013052
:100E4E00F407740884000A128A1103200A128A1108
:100E5E00003A031D332F342F1A2F0800F5000230ED
:100E6E007502031C3B2F3C2F3D2FF50110307402F1
:100E7E00031C422F432F442FF4017508031D482FE6
:100E8E00492F512F7408803E0A128A11C8260A1261
:100E9E008A11582F7408C03E0A128A11C8260A12E7
:100EAE008A1108000A128A11A9270A128A11013022
:100EBE000A128A11BA260A128A11F40100300A1295
:100ECE008A1135270A128A110130F4000A128A118A
:100EDE0019270A128A11F40101300A128A113527D4
:100EEE000A128A110D30F4000A128A1119270A12F9
:100EFE008A113D30F800E130F7003F30F600F60B76
:100F0E00862FF70B862FF80B862F8D2F00300A12A7
:100F1E008A11BA260A128A110A128A11A7260A12F1
:100F2E008A110B30F8002630F7005D30F600F60B14
:100F3E009E2FF70B9E2FF80B9E2FA52F5E2F0A12BA
:100F4E008A1100288316031386018812081388134A
:100F5E0005116830F500E430F400F40BB42FF50BF6
:100F6E00B42F0000F10138300A128A11FD260A1240
:100F7E008A111A30F500F830F400F40BC42FF50B7B
:100F8E00C42F0000F10138300A128A11FD260A1210
:100F9E008A11C730F400F40BD22FD52FF10138305F
:100FAE000A128A11FD260A128A1138300A128A1183
:100FBE00C8260A128A110C300A128A11C8260A1281
:100FCE008A1101300A128A11C8260A128A110630B5
:100FDE000A128A11C8260A128A110C30F9008530BD
:100FEE00F400F40BF82F0800F90183010A128A119C
:020FFE00592F69
:02400E007A3FF7
:00000001FF
