:100000000A128A11D92F00308A000408840A820754
:10001000003420342034483445344C344C344F348C
:10002000203457344F3452344C3444342134203447
:040030002034003444
:100968000534003408341A342C34F701F801CF2C3C
:100978007708760784000A128A1103200A128A115E
:100988000A128A11C2250A128A110130F7070318C0
:10099800F80A0030F8077708760784000A128A11E7
:1009A80003200A128A11003A031DDB2CDC2CBC2C14
:1009B8000800F500831203132908840083172A1CF2
:1009C80083130130F3002B080739013EED2C031087
:1009D800F30DFF3E031DEB2C7308FF3A80057508E5
:1009E8000A128A1156260A128A1183120313290839
:1009F800840083172A1C83130130F3002B0CF400A6
:100A0800F40C740C0739013E0B2D0310F30DFF3E57
:100A1800031D092D730880041A30F400F830F30020
:100A2800F30B142DF40B142D000083120313290863
:100A3800840083172A1C83130130F3002B0CF40065
:100A4800F40C740C0739013E2B2D0310F30DFF3EF7
:100A5800031D292D7308FF3A800508008316031328
:100A68001F08F03907389F00F8309C0523308400B0
:100A7800831203132E0883138000840A2F08800032
:100A8800840A30088000840A31088000840A320809
:100A980080007630840023088000840A24088000BF
:100AA800840A25088000840A26088000840A27080A
:100AB80080000A128A1110270A128A1100300A12BD
:100AC8008A11DD240A128A1101300A128A11DD24E2
:100AD8000A128A110C300A128A11DD240A128A11AC
:100AE80000300A128A11DD240A128A110130F60038
:100AF8000A128A11B9240A128A110C300A128A11B0
:100B0800DD240A128A1101300A128A11DD240A1220
:100B18008A11413083120313A80028080A128A1187
:100B2800C2250A128A11083083120313A2009D30CD
:100B3800A1000530A000A00B9F2DA10B9F2DA20B9B
:100B48009F2D013083120313A80751302802031C7C
:100B5800AE2DAF2D912D1A3083120313A2005E30F3
:100B6800A1006D30A000A00BB72DA10BB72DA20BD3
:100B7800B72DBE2D622D0A128A110028F5008312A6
:100B880003132908840083172A1C83130130F300F8
:100B98002B080739013ED22D0310F30DFF3E031D2C
:100BA800D02D730880047508F30004300310F30C8B
:100BB800FF3E031DDA2D73080F390A128A115626D3
:100BC8000A128A11831203132908840083172A1C26
:100BD80083130130F3002B0CF400F40C740C073968
:100BE800013EF82D0310F30DFF3E031DF62D73088B
:100BF80080044230F300F30BFF2D0000831203132F
:100C08002908840083172A1C83130130F3002B0C56
:100C1800F400F40C740C0739013E142E0310F30D84
:100C2800FF3E031D122E7308FF3A800575080F3921
:100C38000A128A1156260A128A11831203132908E6
:100C4800840083172A1C83130130F3002B0CF40053
:100C5800F40C740C0739013E332E0310F30DFF3EDC
:100C6800031D312E730880044230F300F30B3A2E33
:100C78000000831203132908840083172A1C831396
:100C88000130F3002B0CF400F40C740C0739013E0E
:100C98004F2E0310F30DFF3E031D4D2E7308FF3A30
:100CA80080050800F200721C5A2E5B2E702E8312EB
:100CB80003132908840083172A1C83130130F000CA
:100CC8002C080739013E6A2E0310F00DFF3E031D64
:100CD800682E70088004852E831203132908840067
:100CE80083172A1C83130130F0002C080739013EB2
:100CF8007F2E0310F00DFF3E031D7D2E7008FF3A76
:100D08008005F21C882E892E9F2E290884008317BF
:100D18002A1C83130130F0002C0CF100F10C710C2B
:100D28000739013E992E0310F00DFF3E031D972E43
:100D380070088004B52E2908840083172A1C8313A1
:100D48000130F0002C0CF100F10C710C0739013E58
:100D5800AF2E0310F00DFF3E031DAD2E7008FF3AB5
:100D68008005721DB82EB92ECC2E29088400831751
:100D78002A1C83130130F0002D080739013EC62EC6
:100D88000310F00DFF3E031DC42E70088004DF2EF3
:100D98002908840083172A1C83130130F0002D08CA
:100DA8000739013ED92E0310F00DFF3E031DD72E43
:100DB8007008FF3A8005F21DE22EE32EF92E29086D
:100DC800840083172A1C83130130F0002D0CF100D6
:100DD800F10C710C0739013EF32E0310F00DFF3EA4
:100DE800031DF12E700880040F2F29088400831733
:100DF8002A1C83130130F0002D0CF100F10C710C4A
:100E08000739013E092F0310F00DFF3E031D072F80
:100E18007008FF3A8005080029308400760883139B
:100E28008000840A77088000840A78088000840A91
:100E380079088000840A7A0880000030831203133E
:100E48002A06031D292F05302906031D2C2F2D2FB7
:100E5800312F831603138501682F00302A06031DDE
:100E6800372F06302906031D3A2F3B2F3F2F8316B5
:100E780003138601682F00302A06031D452F07300B
:100E88002906031D482F492F4D2F83160313870169
:100E9800682F00302A06031D532F08302906031D2A
:100EA800562F572F5B2F831603138801682F0030A6
:100EB8002A06031D612F09302906031D642F652F9B
:100EC800D82F8316031389018230FC00DD30FB0024
:100ED800FB0B6C2FFC0B6C2F712F03300A128A113D
:100EE800DD240A128A112130FC007630FB00FB0B4E
:100EF8007B2FFC0B7B2F000003300A128A11DD24A4
:100F08000A128A116830FC00E430FB00FB0B8A2FC0
:100F1800FC0B8A2F000003300A128A11DD240A1202
:100F28008A1102300A128A11DD240A128A1102304B
:100F38000A128A11DD240A128A1108300A128A114B
:100F4800DD240A128A1100300A128A11DD240A12DD
:100F58008A1106300A128A11DD240A128A11083011
:100F6800FD007D157D08FB0004300310FB0CFF3EDF
:100F7800031DB92F7B080F390A128A11DD240A12C2
:100F88008A117D080F390A128A11DD240A128A1182
:100F980000300A128A11DD240A128A1101300A125D
:100FA8008A11DD240A128A1108000A128A11B4244F
:100FB8000A128A11AE000A128A11B5240A128A117D
:100FC800AF000A128A11B6240A128A11B0000A1256
:100FD8008A11B7240A128A11B1000A128A11B82498
:100FE8000A128A11B200A901AA01AB01AC01AD0134
:080FF80083010A128A11322D57
:02400E00793FF8
:00000001FF
