:100000000A128A11FC2FFF1B0D2883137F188317F8
:100010000008840A0319FF0A080000308A00040857
:10002000840A82070034483465346C346C346F348D
:10003000203457346F3472346C34643421340034D7
:10004000253425342E342534753466340034253473
:0400500064340034E0
:100C9C000F300A128A11CB26080001300A128A1171
:100CAC00CB260A128A110B30FA006230F900F90BCC
:100CBC005D2EFA0B5D2E00000800FC007908031D68
:100CCC006A2E7C0880386F2E7903031D742E7C08E5
:100CDC00C0380A128A11CB260A128A111A30FB006C
:100CEC00F830FA00FA0B782EFB0B782E0000080077
:100CFC0088100630F1003030F000F00B832EF10B31
:100D0C00832E00008312031388140630F100303058
:100D1C00F000F00B8F2EF10B8F2E000083120313BB
:100D2C0088103430F100F130F000F00B9B2EF10BF9
:100D3C009B2EA02E0800831688010A128A11A32765
:100D4C000A128A110A128A1153260A128A11F901FF
:100D5C0000300A128A1163260A128A110130F90036
:100D6C008030FA000A128A1123270A128A11F9011B
:100D7C00F90A05300A128A1163260A128A110A121C
:100D8C008A114E260A128A11CA2EF8000B30F7006F
:100D9C006230F600F60BD02EF70BD02E0000F201CD
:100DAC0078080A128A1150270A128A117808F6005C
:100DBC0003300310F60DFF3E031DDF2E0310760DDE
:100DCC00F8000630F7003030F600F60BEB2EF70B80
:100DDC00EB2E0000F20178080A128A115027080045
:100DEC00F8000B30F7006230F600F60BFB2EF70B19
:100DFC00FB2E0000F201F20A78080A128A11502721
:100E0C000A128A117808F60003300310F60DFF3E23
:100E1C00031D0B2F0310760DF8000630F700303051
:100E2C00F600F60B172FF70B172F0000F201F20A42
:100E3C0078080A128A11502708007A0883120313C3
:100E4C00FF00790884000A128A1103200A128A1101
:100E5C00003A0319462F7A08FF00790884000A1219
:100E6C008A1103200A128A110A128A11F6260A1212
:100E7C008A110130F9070318FA0A0030FA07232FF8
:100E8C001A30FC00F830FB00FB0B4A2FFC0B4A2FEE
:100E9C0000000800F5007508F30004300310F30C93
:100EAC00FF3E031D542F7308F5000F30F505750830
:100EBC000139F300F30E8312031308087306EF399C
:100ECC00730688007508F3000310730C0139F400E5
:100EDC00F40EF40D08087406DF39740688007508E2
:100EEC00F30002300310F30CFF3E031D782F730840
:100EFC000139F400F40EF40DF40D08087406BF3932
:100F0C00740688007508F30003300310F30CFF3EE1
:100F1C00031D8B2F73080139F400F40CF40C080832
:100F2C0074067F3974068800720C031C08100318B1
:100F3C0008140A128A117E260800831208128812DD
:100F4C00081388130230FD000430FC00BA30FB009B
:100F5C00FB0BAE2FFC0BAE2FFD0BAE2F0000F201E6
:100F6C0003300A128A1150270A128A111830FC0019
:100F7C005F30FB00FB0BC02FFC0BC02FF2010330CA
:100F8C000A128A1150270A128A111830FC005F309D
:100F9C00FB00FB0BCF2FFC0BCF2FF20103300A12FF
:100FAC008A1150270A128A11C730FB00FB0BDC2F69
:100FBC00DF2FF20102300A128A1150270A128A110D
:100FCC0028300A128A11CB260A128A110C300A1206
:100FDC008A11CB260A128A110A128A1153260A1276
:100FEC008A1106300A128A11CB26080083010A12D4
:040FFC008A11A12E87
:02400E007A3FF7
:00000001FF
